:020000040800F2
:100000004808002089180008390200083B0200084F
:100010003F020008430200084702000800000000F9
:100020000000000000000000000000004D02000879
:100030004B020008000000004F02000851020008B7
:100040005302000855020008570200085902000830
:100050005B0200085D0200085F0200086102000800
:1000600063020008650200086702000869020008D0
:100070006B0200086D0200086F02000871020008A0
:10008000730200087502000877020008A318000830
:10009000A3180008A3180008A3180008810200088C
:1000A0008302000885020008870200088902000810
:1000B0008B0200088D0200088F02000891020008E0
:1000C00093020008950200089702000899020008B0
:1000D0009B0200089D0200089F020008A102000880
:1000E000A3020008A5020008A702000800F002F819
:1000F00000F047F80AA090E8000C82448344AAF17B
:100100000107DA4501D100F03CF8AFF2090EBAE878
:100110000F0013F0010F18BFFB1A43F0010318473B
:1001200094230000B4230000103A24BF78C878C19B
:10013000FAD8520724BF30C830C144BF04680C60ED
:10014000704700000023002400250026103A28BF35
:1001500078C1FBD8520728BF30C148BF0B60704739
:10016000632901F05885002070471FB59DE8030002
:1001700001F08CFF01F08AFD1FBD10B501F0EFFD0D
:1001800010BD01F01FFE1146FFF7EFFF00F018F859
:1001900001F024FF03B4FFF7F0FF03BC02F0E8F81E
:1001A00070B504460D46E1B21D4800F0B9FD00BF30
:1001B00040211B4800F022FE0028F9D0204670BDE7
:1001C00001F0DBF901F01DFA01F05EF8154801F0CD
:1001D00073F900240BE0204601F060F8124908553D
:1001E0000846015D11A001F041FC601CC4B20D483D
:1001F00001F0A5FCA042EED80DA001F037FC0EE006
:100200004FF400510B4800F0DEF901F07CF9642056
:1002100001F0A6F94FF40051064800F0D2F9EFE7DB
:10022000004400401000002064000020256300000E
:100230000A00000000100140704700BFFEE700BF49
:10024000FEE700BFFEE700BFFEE77047704770475C
:1002500070477047704770477047704770477047E6
:1002600070477047704770477047704770477047D6
:1002700070477047704770477047704770477047C6
:1002800070477047704770477047704770477047B6
:1002900070477047704770477047704770477047A6
:1002A0007047704770477047704770477047704796
:1002B0007047704770477047704770477047704786
:1002C00070477047704770477047000031490143DD
:1002D000314A1160704770B5002100230F22C478A5
:1002E00004B32D4C246804F4E064C4F5E064210AEE
:1002F000C1F10403CA40447804FA03F1847814403D
:1003000021430901254C0678A155047804F01F0506
:100310000124AC4005786D11AD0005F1E025C5F86C
:10032000004109E0047804F01F050124AC401C4D95
:100330000678761145F8264070BD1A4A0A400243F5
:10034000154B1B1F1A60704739B1134A121D1268F2
:100350000243114B1B1D1A6006E00F4A121D126862
:1003600082430D4B1B1D1A607047042808D14FF0C3
:10037000E021096941F004014FF0E022116107E03A
:100380004FF0E021096921F004014FF0E0221161F2
:10039000704700000000FA050CED00E000E400E00A
:1003A00080E100E080FFFF1F10B50446CC48844286
:1003B00008D10121042000F02DFB0021042000F0D1
:1003C00029FB46E0C748844208D10121082000F0FB
:1003D00021FB0021082000F01DFB3AE0C2488442C6
:1003E00008D10121102000F015FB0021102000F0A1
:1003F00011FB2EE0BD48844208D10121202000F0ED
:1004000009FB0021202000F005FB22E0B8488442CF
:1004100008D10121402000F0FDFA0021402000F029
:10042000F9FA16E0B348844208D10121802000F097
:10043000F1FA0021802000F0EDFA0AE0AE48844293
:1004400007D10121801500F0E5FA0021A01500F088
:10045000E1FA10BD10B50121084600F0DBFA0021D9
:10046000012000F0D7FA10BD2DE9F0410246002529
:100470000026002000230024002791F803C00CF080
:100480000F0591F803C00CF0100CBCF1000F03D065
:1004900091F802C04CEA050591F800C0BCF1000FCC
:1004A00031D0146800202BE04FF0010C0CFA00F35F
:1004B000B1F800C00CEA03069E4220D183004FF041
:1004C0000F0C0CFA03F7BC4305FA03FC4CEA0404D6
:1004D00091F803C0BCF1280F06D14FF0010C0CFAC3
:1004E00000FCC2F814C00AE091F803C0BCF1480F48
:1004F00005D14FF0010C0CFA00FCC2F810C0401CF2
:100500000828D1D31460B1F800C0BCF1FF0F34DD6E
:10051000546800202EE000F1080C4FF0010808FAA2
:100520000CF3B1F800C00CEA03069E4221D183000F
:100530004FF00F0C0CFA03F7BC4305FA03FC4CEA2E
:10054000040491F803C0BCF1280F05D100F1080C98
:1005500008FA0CF8C2F8148091F803C0BCF1480FF7
:1005600007D100F1080C4FF0010808FA0CF8C2F8A6
:100570001080401C0828CED35460BDE8F0814FF6AF
:10058000FF710180022181700421C1707047024611
:10059000002093680B400BB1012000E00020704761
:1005A0000146886880B2704702460020D3680B403D
:1005B0000BB1012000E0002070470146C86880B2FE
:1005C000704701617047416170470AB1016100E005
:1005D00041617047C16070474FF480320A438261C5
:1005E0008161826182698269704702460020434BC3
:1005F00018684FF68073184040EA021008433F4BDA
:10060000186070473E49C8617047F0B50A4600233C
:1006100000240021002500F00046B6F1004F02D171
:10062000364EF16901E0354E7168C0F3034583B27F
:1006300000F44016B6F5401F08D121F070612F4E2E
:10064000766826F070662D4F7E6012E000F480160A
:10065000B6F5801F06D1032606FA05F4A14341F042
:10066000706106E0460D360103FA06F6B14341F02B
:10067000706122B1460D360103FA06F6314300F0EF
:100680000046B6F1004F02D11C4EF16101E01B4E55
:100690007160F0BD30B500228B071C0F0F2303FAE9
:1006A00004F2164B08338C1053F824309343134C48
:1006B00008348D1044F8253023468C1053F824302C
:1006C0008C07240F00FA04F423430C4C08348D10DB
:1006D00044F8253030BD0A49DC310860704700001D
:1006E00000080140000C01400010014000140140CE
:1006F00000180140001C01400020014000000140A2
:1007000000002042DF48006840F00100DD49086039
:1007100008464068DC490840DA49486008460068F5
:10072000DA490840D74908600846006820F480206C
:1007300008600846406820F4FE0048604FF41F003F
:1007400088607047CF49096821F48031CD4A116033
:100750001146096821F480211160B0F5803F03D073
:10076000B0F5802F0ED106E0C649096841F480310A
:10077000C44A116007E0C349096841F4A021C14A95
:10078000116000E000BF00BF704710B501460022B5
:10079000002300204A11012A02D1BA4C236806E046
:1007A000022A02D1B74C236A01E0B64C636A01F019
:1007B0001F02012494401C400CB1012000E00020E5
:1007C00010BD38B5002000900024002500BF312066
:1007D000FFF7DBFF05460098401C00900098B0F53D
:1007E000A06F01D0002DF2D03120FFF7CEFF08B16D
:1007F000012400E00024204638BD01460020A14A23
:10080000106820F0F80040EAC10010607047A0496D
:1008100008607047024600209A4B586820F47C100C
:1008200042EA01031843974B58607047984908669D
:10083000704701460020934A506820F003000843A7
:10084000506070478F48406800F00C0070470146C8
:1008500000208C4A506820F0F00008435060704738
:1008600001460020874A506820F4E0600843506049
:10087000704701460020834A506820F4605040EAE7
:10088000C1005060704729B17E4A527A02437D4BC5
:100890005A7204E07B4A527A82437A4B5A7270470A
:1008A0007B49D8310860704701460020754A50687E
:1008B00020F440400843506070470021714A2032C4
:1008C0001170704A82F82010012802D004280AD141
:1008D00004E001216B4A2032117005E00521694ACC
:1008E0002032117000E000BF00BF70476949086006
:1008F00070476449096A0143624A11627047654959
:1009000044390860704730B50021002200240023DC
:100910005C4D6D6805F00C0121B1042905D0082952
:1009200023D105E05C4D056022E05B4D05601FE0D2
:10093000544D6D6805F47012524D6D6805F48034A5
:10094000022505EB92421CB9544D554305600BE05E
:100950004C4D6D6805F400351DB1504D5543056093
:1009600002E04D4D5543056002E04B4D056000BF70
:1009700000BF444D6D6805F0F0010909484D6B5CFE
:100980000568DD4045603F4D6D6805F4E061090A8A
:10099000434D6B5C4568DD4085603A4D6D6805F4FC
:1009A0006051C90A3E4D6B5C4568DD40C560354D00
:1009B0006D6805F44041890B3A4D6B5CC568B5FB29
:1009C000F3F5056130BD29B12E4A526902432D4B22
:1009D0005A6104E02B4A526982432A4B5A6170479C
:1009E00029B1284A92690243264B9A6104E0254ABC
:1009F00092698243234B9A61704729B1214AD26997
:100A00000243204BDA6104E01E4AD26982431D4B47
:100A1000DA61704729B11B4AD2680243194BDA6088
:100A200004E0184AD2688243164BDA60704729B155
:100A3000144A12690243134B1A6104E0114A126905
:100A40008243104B1A617047124940390860704761
:100A50000F49C86470470B49C87170470948406A1C
:100A600040F0807007494862704701460020054AFF
:100A700092680A400AB1012000E000207047014955
:100A800088727047001002400000FFF8FFFFF6FE7A
:100A9000000042428004424200127A0000093D00F8
:100AA000260000203600002010B50446FB48844292
:100AB00009D101218803FFF7ADFF00214FF48040E9
:100AC000FFF7A8FF32E0F648844209D1012148042B
:100AD000FFF7ADFF00214FF40030FFF7A8FF25E03E
:100AE000F048844209D101218804FFF7A0FF0021CA
:100AF0004FF48020FFF79BFF18E0EB48844209D1B8
:100B00000121C804FFF793FF00214FF40020FFF7F5
:100B10008EFF0BE0E548844208D101210805FFF76C
:100B200086FF00214FF48010FFF781FF10BD2DE9F3
:100B3000F04786B005460E460024A24600BFA146F7
:100B40000027B08900B100BF2F462C8A4CF6FF70F9
:100B50000440F08804432C82AC894EF6F310044024
:100B6000B08831890843718908430443AC81AC8A59
:100B70004FF6FF400440B0890443AC8201A8FFF760
:100B8000C2FEC648874202D1DDF810A001E0DDF8C0
:100B90000CA0A88900F4004040B10AEBCA0000EBA9
:100BA0000A1031684900B0FBF1F807E00AEBCA000F
:100BB00000EB0A1031688900B0FBF1F86420B8FB43
:100BC000F0F004012009642101FB1089A88900F4D8
:100BD000004040B1322000EBC900B0FBF1F000F062
:100BE0000700044308E0322000EB09106421B0FB49
:100BF000F1F000F00F0004432C8106B0BDE8F0874F
:100C00004FF41651016000218180C18001810C21C7
:100C1000418100218181704710B502460020108A71
:100C20004FF2FF0318400B884C8823438C882343E2
:100C3000CC8823431843108210BD002101804180DD
:100C40008180C180704721B1828942F40052828143
:100C500004E082894DF6FF731A4082817047F0B537
:100C60000346002400260025002040F66A17B942FA
:100C700000D100BF1846C1F3421401F01F0601273E
:100C800007FA06F5012C01D10C3004E0022C01D149
:100C9000103000E014301AB107682F43076002E0FB
:100CA0000768AF430760F0BD1AB1838A0B438382A4
:100CB00002E0838A8B4383827047028A4FF6F07387
:100CC0001A400282028A0A430282704782894FF2E6
:100CD000FF731A40828182890A438281704721B161
:100CE000828942F00202828104E082894FF6FD731C
:100CF0001A4082817047028A4FF6DF731A400282DF
:100D0000028A0A430282704721B1028A42F4804279
:100D1000028204E0028A4BF6FF731A400282704797
:100D2000C1F308028280704701468888C0F308003A
:100D30007047818941F0010181817047028BD2B2F5
:100D40000283028B42EA012202837047028B02F483
:100D50007F420283028B0A430283704721B1828A59
:100D600042F02002828204E0828A4FF6DF731A404A
:100D70008282704721B1828A42F01002828204E0AE
:100D8000828A4FF6EF731A408282704721B1828ABD
:100D900042F00802828204E0828A4FF6F7731A401A
:100DA0008282704721B1828942F40042828103E04D
:100DB0008289C2F30E028281704721B1828A42F495
:100DC0000062828204E0828A4FF2FF731A408282BC
:100DD0007047828A4FF6FB731A408282828A0A43E6
:100DE0008282704721B1828A42F00202828204E04C
:100DF000828A4FF6FD731A408282704702460020B5
:100E0000B1F5007F00D100BF13880B400BB101206A
:100E100000E00020704701F40072B2F5007F00D1BD
:100E200000BFCA430280704770B502460024002309
:100E30000025002040F66A16B14200D100BFC1F380
:100E4000421501F01F03012606FA03F3012D02D11A
:100E50009689334006E0022D02D1168A334001E024
:100E6000968A33400C12012606FA04F416883440A0
:100E700013B10CB1012000E0002070BD10B50022BC
:100E8000002340F66A14A14200D100BF0A120124D7
:100E90009440A3B2DC43048010BD00000038014040
:100EA0000044004000480040004C0040005000401A
:100EB00010B50446BE48844208D101218014FFF7D2
:100EC000A9FD0021A014FFF7A5FD16E0B948844252
:100ED00008D101210014FFF7AAFD00212014FFF71B
:100EE000A6FD0AE0B448844207D10121C013FFF7F0
:100EF0009EFD0021E013FFF79AFD10BD10B5002202
:100F0000028802F441520B884C8823438C88234387
:100F1000CC8823430C8923434C8923438C89234366
:100F2000CC8923431A430280838B4FF2FF74234002
:100F300083830B8A038210BD2DE9F04F85B00546EF
:100F40000C464FF0000902274FF000084FF0010B4C
:100F50000026B246A88B4FF240010840A883022029
:100F60002884B5F81C90A068022801D100BF38E0A1
:100F7000A08810B94FF0010B01E04FF0020B8D4833
:100F8000854200D100E000BF6846FFF7BCFCDDF8F9
:100F900000A0E088B0F5007F0AD14FEA1A2000EBEC
:100FA00080004000A168B0FBF1F0401D86B20BE06C
:100FB0004FEA4B10BAFBF0F000EB80004000A16854
:100FC000B0FBF1F0401D86B20A20B6FBF0F606F049
:100FD0000108A6EB0800C0F34F074FF6FF7000EAC8
:100FE0000828022F01DBFF2F02DD02274FF0000847
:100FF000E08840EA080038432884A088A189084393
:10100000618808432188084340F4006040EA0909E8
:10101000A5F81C9005B0BDE8F08F0021018041804B
:101020008180C180018141818181C181072101824B
:1010300070470021018041808180C1800221816050
:1010400000218181704721B1028842F04002028074
:1010500004E002884FF6BF731A400280704721B146
:10106000828B42F48062828304E0828B4FF6FF33EE
:101070001A408283704730B5002400230C110125EB
:10108000A540ABB21AB185881D43858002E08588F2
:101090009D43858030BD1AB183880B43838002E075
:1010A00083888B438380704781817047014688899C
:1010B00070474FF6FF62914204D0028842F480727A
:1010C000028004E002884FF6FF631A4002807047F6
:1010D00021B1828842F00402828004E082884FF6C7
:1010E000FB731A408280704702884FF2FF731A40E8
:1010F000028002880A4302807047018841F48051CF
:101100000180704721B1028842F40052028004E05D
:1011100002884DF6FF731A40028070470246002095
:10112000012901D0108B00E0908A70470146088A9F
:101130007047B1F5804F04D1028842F480420280AA
:1011400004E002884BF6FF731A40028070470246A3
:10115000002013890B400BB1012000E000207047F4
:10116000CA4302817047F0B50246002000240023E4
:10117000002501F00F070126BE40B4B20B11012675
:101180009E40B3B2968806EA03051689264016B13A
:101190000DB1012000E00020F0BD10B5002201F0EB
:1011A0000F040123A3409AB2D343038110BD000072
:1011B0000030014000380040003C004010B50446BB
:1011C00000BF0221E148FFF7C2FF0028F9D000BFAD
:1011D0008021DE48FFF7BBFF0128F9D034B900BFFA
:1011E0000121DA48FFF7B3FF0028F9D010BD70B530
:1011F00004462146D548FFF757FF0120FFF7DEFFE1
:10120000D248FFF753FFC5B270BD10B5FF21CF48DC
:10121000FFF74AFF0020FFF7D1FFCC48FFF746FF5A
:10122000C0B2044610BD10B504461021C848FFF7EF
:10123000CAF9C84804700120FFF7D9FF2046FFF71C
:10124000D6FF1021C248FFF7BCF910BD10B5044607
:101250001021BF48FFF7B7F924B1012C06D0022CAA
:101260000CD107E0FF20FFF7C2FF07E03B20FFF7AC
:10127000BEFF03E03820FFF7BAFF00BF00BF102118
:10128000B348FFF79EF910BD10B500F0CBF9002070
:10129000FFF7DCFF0020FFF7C6FF10BD70B5044666
:1012A0001021AB48FFF78FF9A848FFF7FFFE032096
:1012B000FFF79DFFC4F30740FFF799FFC4F3072032
:1012C000FFF795FFE0B2FFF792FFFFF79EFF05469D
:1012D00010219F48FFF775F9284670BD70B5044688
:1012E0009C480078402802D04020FFF79CFF102146
:1012F0009748FFF768F900BF60219748FFF733FF71
:101300000128F9D09148FFF7D1FE0320FFF76FFFC6
:10131000C4F30740FFF76BFFC4F30720FFF767FF35
:10132000E0B2FFF764FFFFF770FF0502FFF76DFF04
:10133000054310218648FFF744F9284670BD70B573
:10134000044684480078402802D04020FFF76BFF15
:1013500010217F48FFF737F900BF60217E48FFF773
:1013600002FF0128F9D07948FFF7A0FE0320FFF71C
:101370003EFFC4F30740FFF73AFFC4F30720FFF72F
:1013800036FFE0B2FFF733FFFFF73FFF0506FFF739
:101390003CFF45EA0045FFF738FF45EA0025FFF727
:1013A00034FF054310216A48FFF70BF9284670BD4A
:1013B00038B504462046FFF7C2FF0090009838BDBC
:1013C00070B504460D4610216148FFF7FCF8022075
:1013D000FFF70DFFC4F30740FFF709FFC4F3072031
:1013E000FFF705FFE0B2FFF702FF2846FFF7FFFE19
:1013F00010215748FFF7E5F870BD70B504460D465B
:1014000054480078402802D04020FFF70CFF1021FC
:101410004F48FFF7D8F80220FFF7E9FEC4F3074072
:10142000FFF7E5FEC4F30720FFF7E1FEE0B2FFF7A8
:10143000DEFE2812FFF7DBFEE8B2FFF7D8FE102130
:101440004348FFF7BEF870BD70B505460C464148ED
:101450000078402802D04020FFF7E5FE10213C48EC
:10146000FFF7B1F80220FFF7C2FEC5F30740FFF710
:10147000BEFEC5F30720FFF7BAFEE8B2FFF7B7FEDE
:10148000200EFFF7B4FEC4F30740FFF7B0FEC4F32D
:101490000720FFF7ACFEE0B2FFF7A9FE10212C48B1
:1014A000FFF78FF870BD38B505460C460094284606
:1014B0000099FFF7C9FF38BD70B505462E460024D8
:1014C00005E0315D2046FFF77BFF601CC4B2284673
:1014D00000F035FBA042F4D870BD10B51B48FFF7F3
:1014E000E5FD10211A48FFF76EF80520FFF77FFE93
:1014F000FFF78BFE04461748047010211448FFF7CD
:1015000060F8204610BD10B54020FFF78CFE10217A
:101510000F48FFF758F80220FFF769FE0020FFF799
:1015200066FE0020FFF763FE0020FFF760FE002448
:1015300003E0E0B2FFF75BFE641C08488442F8D386
:1015400010210348FFF73DF810BD000000300140B6
:10155000000801403A00002000380040FFFF010071
:10156000002107E0002200E0521C42F6FF239A42CD
:10157000FAD3491C8142F5D3704710B501214804C4
:10158000FFF73BFA01210420FFF72AFA04203E4925
:1015900008801820C870032088703C48FEF764FF5C
:1015A0000820394908800420C8703848FEF75CFFDD
:1015B0004FF4E1303649086000208880C8800881F7
:1015C00088810C2048813348FFF7B1FA2620324940
:1015D00008700020887048700120C8700846FEF727
:1015E0007AFE40F225512B48FFF715FC012240F20C
:1015F00025512848FFF733FB01212648FFF723FB3D
:1016000010BD10B501211D20FFF7EAF94FF400507D
:101610001D490880032088704820C8701F48FEF7C5
:1016200023FF10BD10B5012141F20400FFF7D8F9E6
:10163000E02015490880032088701820C8701348DE
:10164000FEF712FF10201049088003208870102038
:10165000C8700E48FEF708FF0020114908804FF4BB
:101660008270488000208880C88008814FF4007014
:10167000488100208881C8810A48FFF73FFC01218A
:101680000848FFF7E0FC10BD3C00002000080140C6
:10169000C80000200044004040000020001001402D
:1016A000D8000020003001400CB5002001900090CF
:1016B0006C48006840F480306A49086000BF69489F
:1016C000006800F4003000900198401C01900098E0
:1016D00018B90198B0F5A06FF1D16248006800F424
:1016E000003010B10120009001E00020009000982F
:1016F000012843D15C48006840F010005A49086056
:101700000846006820F0030008600846006840F0C2
:1017100002000860534840685249486008464068E3
:1017200048600846406840F4806048600846406869
:1017300020F47C1048600846406840F4E810486097
:101740000846006840F08070086000BF45480068A7
:1017500000F000700028F9D04248406820F00300F3
:10176000404948600846406840F00200486000BFB9
:101770003C48406800F00C000828F9D10CBD10B5B9
:10178000FFF792FF10BD10B53648006840F0010029
:101790003449086008464068344908403149486087
:1017A00008460068324908402E490860084600682B
:1017B00020F4802008600846406820F4FE0048605D
:1017C0004FF41F008860FFF7DAFF4FF000602949EF
:1017D000086010BD10B5002100200022214B5B687D
:1017E00003F00C0121B1042906D0082928D107E013
:1017F000214B224C236027E01F4B204C236023E029
:10180000184B5B6803F47010164B5B6803F480326E
:10181000022303EB904022B9194B4343174C23603A
:101820000DE0104B5B6803F4003323B1144B4343CA
:10183000124C236003E0104B4343104C236003E041
:101840000D4B0E4C236000BF00BF064B5B68C3F31B
:1018500003130C4CE15C094B1B68CB40074C236025
:1018600010BD000000100240002002400000FFF800
:10187000FFFFF6FE08ED00E000127A0044000020B1
:1018800000093D00480000200948804709480047FA
:10189000FEE7FEE7FEE7FEE7FEE7FEE7FEE7FEE720
:1018A000FEE7FEE704480549054A064B704700007D
:1018B00087170008ED0000084802002048080020B3
:1018C00048040020480400204FF0FF3000BE70475D
:1018D00000BE704770B504460D4614B94FF0FF3096
:1018E00070BD20783A281AD15AA1204600F046F956
:1018F00010B948F20100F3E758A1204600F03EF984
:1019000010B948F20200EBE756A1204600F036F984
:1019100010B948F20300E3E74FF0FF30E0E74FF083
:10192000FF30DDE701466FF40040084420B1012894
:1019300004D0022806D103E0002070470020FCE715
:101940000020FAE74FF0FF30F7E72DE9F0410646B7
:101950000C46154698466FF40040304420B10128EB
:1019600006D0022811D10EE04FF0FF30BDE8F08123
:1019700005E014F8017B3846FFF7AAFF6D1E002D25
:10198000F7D10020F2E70020F0E74FF0FF30EDE75D
:101990002DE9F04107460E46144698466FF4004084
:1019A000384420B1012810D0022814D110E0FFF7EC
:1019B0008BFF0546002D03DA44F00040BDE8F081BE
:1019C00006F8015B641E2046F8E74FF0FF30F5E7AC
:1019D0004FF0FF30F2E74FF0FF30EFE700BE704707
:1019E00001466FF40040084420B1012804D00228C9
:1019F00006D103E0012070470120FCE70120FAE74F
:101A00000020F8E702466FF40040104420B101289E
:101A100005D0022809D105E04FF0FF3070474FF0A4
:101A2000FF30FBE74FF0FF30F8E74FF0FF30F5E70E
:101A300001466FF40040084420B1012804D0022878
:101A400006D103E0002070470020FCE70020FAE701
:101A50000020F8E73A535444494E00003A535444A6
:101A60004F5554003A535444455252000FB4044960
:101A700010B503AA029800F0DBF810BC5DF814FB67
:101A8000400100202DE9F0410E460446002020626E
:101A90002046E168884730B3252805D0D4E90121E4
:101AA0009047206A401CF2E7E168204600278847FB
:101AB000050018D0A5F14100192802D820354FF4AF
:101AC00000673246294620462760FEF749FB40B1B1
:101AD000012804D0F61D26F007060836D8E7361D83
:101AE000D6E72846DAE7206ABDE8F08170B50C46F3
:101AF0000546012A05D02878800600D5EA6900232A
:101B000002E0012305E05B1C934202D2E05C002866
:101B1000F9D1A869E618C01AA861286A1844286291
:101B20002846AFF3008004E0D5E9012114F8010B49
:101B30009047B442F8D32846AFF3008070BD10B58B
:101B4000431C02E010F8011B71B18107FAD14FF07C
:101B5000013202C88C1A8C4314EAC211F9D0C01A9F
:101B60000A0603D0C01E10BDC01A10BD0A0401D061
:101B7000801E10BD0902FCD0401E10BD4FF0013C7C
:101B800050F8042B51F8043B9A4221D1A2EB0C03EC
:101B9000934313EACC1317D150F8042B51F8043BAC
:101BA0009A4215D1A2EB0C03934313EACC130BD149
:101BB00050F8042B51F8043B9A4209D1A2EB0C03D4
:101BC000934313EACC13DBD04FF00000704700BF03
:101BD000D01A01BAB1FA81F101F0180122FA01F02C
:101BE000CB40C1F12001DBB2C0B2C01A2CFA01F324
:101BF000D11A914311EAC311E6D17047704770477B
:101C0000704710B5436913B1AFF3008001E0FFF7EF
:101C10006DFF012010BD127800F124010A7000222E
:101C20004A700122EDE711684FF0FF32E9E700004A
:101C3000074B70B50D467B4400F011F8044628466A
:101C400000F020F810B14FF0FF3070BD204670BD9D
:101C500067E5FFFF01694A1C02610878704700B51B
:101C60008FB0CDE901310021059105497944CDE9D5
:101C7000031011466846FFF705FF0FB000BD0000D6
:101C8000E5FFFFFF007B00F08000704710B5424881
:101C9000542100F0B3F94148542100F0AFF9404815
:101CA000542100F0ABF93F493B483C4A3F4B0860A8
:101CB0003D490A603A491960531C0365481C106588
:101CC000012008653B48344A39A1784400F0EAF81D
:101CD00020B9384878440A3800F089F937482F4A43
:101CE00035A1784400F0DEF820B9344878440A3849
:101CF00000F07DF932482A4A2FA1784400F0D2F84A
:101D000020B92F4878440A3800F071F9402322485E
:101D1000DC000021224600F0A1F820B125487844DB
:101D2000543800F064F91D4822464023002100F099
:101D300095F820B121487844543800F058F91848F3
:101D400022461023002100F089F8002806D01C4804
:101D50007844BDE81040563800F049B910BD10482D
:101D600070B5006D20F001040B4800F011F90B482C
:101D700000F00EF90A4800F00BF909E0206D20F0A0
:101D80000105204600F004F9204600F040F82C46FA
:101D9000002CF3D170BD0000EC00002040010020B9
:101DA00094010020580000205C000020600000200A
:101DB00072000000CE07000077000000BD070000A1
:101DC000AD070000754600F041F9AE4605006946D2
:101DD000534620F00700854618B020B5FFF762FD96
:101DE000BDE820404FF000064FF000074FF000081C
:101DF0004FF0000B21F00701AC46ACE8C009ACE89D
:101E0000C009ACE8C009ACE8C0098D46704770B5A0
:101E10000446051F00F01EF90068002C14BF44683A
:101E200070BD002C18BFAC423CBF20466468F8D39C
:101E300001680A18AA4218BF456003D12A680546FE
:101E40001144016028684119A1421CBF6C6070BD3B
:101E50006168696021680844286070BD70B5C46815
:101E6000A50713D0650211D4B2F5807F09D0B2F571
:101E7000007F06D0B2F5806F08D1012300F1240164
:101E800006E05D1E6FF07F46B54201D3012070BDB4
:101E90000161C361416024F470611143C16000209D
:101EA00070BD00002DE9F0410C460746164610466D
:101EB00000F06EF82078611C61280AD0722802D0E8
:101EC00077283CD102E00125002405E00225042406
:101ED00002E0082448F2020511F8010B2B2806D075
:101EE000622809D011F8010C74280AD00BE045F0E3
:101EF000030544F00204EFE745F0040544F0010453
:101F0000EAE744F0100438462146FFF7E3FC411CA1
:101F100015D00021316171604FF40071F560F161FD
:101F20007061200704D530460222002100F00CF930
:101F3000306D40F0010030653046BDE8F081002092
:101F4000FBE72DE9F0410D460646104C206DC10718
:101F500004D0410804D020F00104F7E722460EE047
:101F6000542000F0C2F807000ED0206D47F00101A8
:101F7000084354212065384600F040F83A46294687
:101F80003046BDE8F0418DE70020D6E7EC000020A8
:101F90002DE9F04704464FF000094FF0FF37C568C0
:101FA000D4E90486A80707D0204600F07DF9304622
:101FB000FFF7B8FC002802DA3846BDE8F0872805AC
:101FC00002D54046FFF723FF4C21204600F016F8CB
:101FD000206D20F0010020654846EEE710B504466C
:101FE000AFF300802046BDE81040FEF7D3B810B52F
:101FF00000F0A4F9BDE8104000F09AB94FF00002DB
:1020000000B5134694469646203922BFA0E80C50EE
:10201000A0E80C50B1F12001BFF4F7AF090728BFC9
:10202000A0E80C5048BF0CC05DF804EB890028BF45
:1020300040F8042B08BF704748BF20F8022B11F06E
:10204000804F18BF00F8012B704700000048704710
:10205000E801002000487047F001002070477047F9
:102060007047704738B504460A4600206946AFF30A
:102070000080002808BF38BD02460099204600F0C5
:1020800084F9012038BD012000F0D3B9F8B5AFF3D1
:102090000080054600200C46102000BF0646A81907
:1020A000A0420DD9324669460020AFF300800700F8
:1020B00008BF00F0BEF90098A04218BF0546C41939
:1020C000FFF7C8FF05600746F01D20F0070046191E
:1020D000284600F053F9B44208BFF8BDA21B3146B0
:1020E0003868BDE8F84000F050B970B50646FFF713
:1020F000B1FF056806F10B0020F00704B4429CBF55
:10210000002070BD2B466A68BAB11068A04210D397
:1021100004F1080188423CBF5068586007D35168F9
:10212000101941601168091B016058601460101D8E
:1021300070BD13465268002AE7D121462846FFF7B2
:1021400091FF0028DED170BD2DE9F041044616460E
:102150000D464769007B80072ED03846FFF740FCCC
:1021600050BB3EB3012E02D0022E25D104E0204602
:1021700000F025F905441DE03846FFF759FCE168F9
:10218000002841F01001E16005DA204600F058F81F
:102190000120BDE8F081C9030BD56268E16A914274
:1021A00000D81146A26911442269891A814200DDD2
:1021B00008460544002D01DA0220EAE7E16A60687A
:1021C000E268814206D29103E06203D522F4003135
:1021D00041F01002A6690027AE4213DCE16A814299
:1021E00001D90B4600E0034603EB060C2369ACEB78
:1021F000030CAC4506DD814201D98C4600E08446E3
:102200009C4505D1A760276042F02000A5620DE043
:10221000AD1BE669AE1B8142A66000D90846C01A14
:10222000281A20605819606022F0200003490840F5
:10223000E060002084F84870ABE70000BFCFD7FF14
:10224000C16821F4001141F08001C160002181606A
:10225000016070472DE9F047814614460E464FF065
:10226000FF383248D5685769054209D03846A16918
:10227000FFF7C8FB002811DB2C48C0430540E56090
:102280002B46324649463846FFF75FFBA16920F0EE
:102290000042B21A11440028A16103D02046FFF782
:1022A000CFFF4046BDE8F08770B504460569C06AB7
:1022B0006168884200D80846E16821F42011E16095
:1022C000C90312D5A84208D02246411B2846FFF771
:1022D000C1FF10B14FF0FF3070BD0020E562C4E9CE
:1022E0000150E06820F48030E060002070BD10B53F
:1022F0000446C06820F02000E060A16AA06988421E
:102300000DD02046FFF7D0FFE06820F4405040F0A9
:102310001000E060A06AA0612069E062606044F2A1
:102320004001E0688843E06010BD0000100002003A
:10233000002801D000F01CB87047000010B501461D
:1023400002A000F05DF8012010BD00005349475283
:10235000545245443A2052656469726563743A2068
:1023600063616E2774206F70656E3A200000000074
:1023700001491820ABBEFEE72600020000210160E3
:10238000C0E90110704710207047034640688C4632
:10239000002818BF88423CBF03464068F8D318683D
:1023A0001844884207D00CF1030020F00700001DFC
:1023B000411A521A0146081D0A60FFF728BD10B5E0
:1023C0000146C268900703D0900607D5886A0AE0E4
:1023D00000F038F801210160881E10BD8B69486843
:1023E00018440B69C01A91F848301BB191F8491094
:1023F000401A10BD1103FCD50028FADD401E10BDA7
:1024000070B505460C460A2000E06D1CFFF7E6FAA1
:1024100035B128780028F8D102E0641CFFF7DEFA15
:1024200014B120780028F8D1BDE870400A20FFF7E9
:10243000D5BA10B500F00AF8BDE81040FFF778BF34
:102440007047000000487047E801002010B50128DF
:1024500005D0002103A0FFF7D3FF012010BD09A183
:10246000F8E7000053494752544D454D3A204F7507
:1024700074206F662068656170206D656D6F72797C
:10248000000000003A2048656170206D656D6F7234
:102490007920636F72727570746564003A535444A6
:1024A000494E003A5354444F5554003A535444450E
:1024B00052520000D42400080000002064000000F4
:1024C000280100083825000864000020E407000007
:1024D00044010008000000000000000000000000AF
:1024E000000000005455414E20564F2044455020D6
:1024F0005452414920435554450000000000010258
:102500000304010203040607080902040608000088
:10251000000000000000000000A24A0400000000CB
:102520000000000001020304060708090000000083
:082530000000000000000000A3
:04000005080000ED02
:00000001FF
